{
  "contractName": "Infraction",
  "abi": [
    {
      "inputs": [
        {
          "internalType": "uint256",
          "name": "_tranferTicketRequestId",
          "type": "uint256"
        }
      ],
      "name": "acceptTransferTicketRequest",
      "outputs": [],
      "stateMutability": "nonpayable",
      "type": "function"
    },
    {
      "inputs": [
        {
          "internalType": "uint256",
          "name": "_ticketId",
          "type": "uint256"
        }
      ],
      "name": "cancelInfraction",
      "outputs": [],
      "stateMutability": "nonpayable",
      "type": "function"
    },
    {
      "inputs": [
        {
          "internalType": "uint256",
          "name": "_ticketId",
          "type": "uint256"
        }
      ],
      "name": "payInfraction",
      "outputs": [],
      "stateMutability": "payable",
      "type": "function"
    },
    {
      "inputs": [
        {
          "internalType": "string",
          "name": "_name",
          "type": "string"
        },
        {
          "internalType": "string",
          "name": "_sigla",
          "type": "string"
        },
        {
          "internalType": "address",
          "name": "_authoritieAddress",
          "type": "address"
        }
      ],
      "name": "registerAuthoritie",
      "outputs": [],
      "stateMutability": "nonpayable",
      "type": "function"
    },
    {
      "inputs": [
        {
          "internalType": "string",
          "name": "_name",
          "type": "string"
        },
        {
          "internalType": "uint256",
          "name": "numberOfPoints",
          "type": "uint256"
        },
        {
          "internalType": "address",
          "name": "_driverAddress",
          "type": "address"
        }
      ],
      "name": "registerDriver",
      "outputs": [],
      "stateMutability": "nonpayable",
      "type": "function"
    },
    {
      "inputs": [
        {
          "internalType": "string",
          "name": "_vehiclePlate",
          "type": "string"
        },
        {
          "internalType": "uint256",
          "name": "_infractionCategory",
          "type": "uint256"
        },
        {
          "internalType": "string",
          "name": "_dateInfraction",
          "type": "string"
        },
        {
          "internalType": "uint256",
          "name": "_infractionPoints",
          "type": "uint256"
        },
        {
          "internalType": "string",
          "name": "_observations",
          "type": "string"
        },
        {
          "internalType": "uint256",
          "name": "_valueToPay",
          "type": "uint256"
        },
        {
          "internalType": "string",
          "name": "_statusOfInfraction",
          "type": "string"
        },
        {
          "internalType": "address",
          "name": "_infractorDriverAddress",
          "type": "address"
        },
        {
          "internalType": "uint256",
          "name": "_infractorDriverId",
          "type": "uint256"
        }
      ],
      "name": "registerInfraction",
      "outputs": [],
      "stateMutability": "nonpayable",
      "type": "function"
    },
    {
      "inputs": [
        {
          "internalType": "uint256",
          "name": "_ticketId",
          "type": "uint256"
        },
        {
          "internalType": "address",
          "name": "_currentOwnerAddress",
          "type": "address"
        },
        {
          "internalType": "address",
          "name": "_requestedInfractorAddress",
          "type": "address"
        }
      ],
      "name": "registerTransferTicketRequest",
      "outputs": [],
      "stateMutability": "nonpayable",
      "type": "function"
    },
    {
      "inputs": [],
      "stateMutability": "nonpayable",
      "type": "constructor"
    },
    {
      "anonymous": false,
      "inputs": [
        {
          "indexed": false,
          "internalType": "uint256",
          "name": "ticketId",
          "type": "uint256"
        },
        {
          "indexed": false,
          "internalType": "address",
          "name": "accountThatPayed",
          "type": "address"
        },
        {
          "indexed": false,
          "internalType": "string",
          "name": "message",
          "type": "string"
        }
      ],
      "name": "TicketPayedEvent",
      "type": "event"
    },
    {
      "anonymous": false,
      "inputs": [
        {
          "indexed": false,
          "internalType": "string",
          "name": "message",
          "type": "string"
        }
      ],
      "name": "TransferTicketEvent",
      "type": "event"
    },
    {
      "anonymous": false,
      "inputs": [
        {
          "indexed": false,
          "internalType": "address",
          "name": "authoritieAddress",
          "type": "address"
        }
      ],
      "name": "registeredAuthoritieEvent",
      "type": "event"
    },
    {
      "anonymous": false,
      "inputs": [
        {
          "indexed": false,
          "internalType": "address",
          "name": "authoritieAddress",
          "type": "address"
        }
      ],
      "name": "registeredDriverEvent",
      "type": "event"
    },
    {
      "anonymous": false,
      "inputs": [
        {
          "indexed": true,
          "internalType": "address",
          "name": "authoritieAddress",
          "type": "address"
        },
        {
          "indexed": true,
          "internalType": "address",
          "name": "driverAddress",
          "type": "address"
        },
        {
          "indexed": false,
          "internalType": "string",
          "name": "message",
          "type": "string"
        }
      ],
      "name": "registeredInfraction",
      "type": "event"
    },
    {
      "inputs": [
        {
          "internalType": "uint256",
          "name": "_tranferTicketRequestId",
          "type": "uint256"
        }
      ],
      "name": "rejectTransferTicketRequest",
      "outputs": [],
      "stateMutability": "nonpayable",
      "type": "function"
    },
    {
      "inputs": [
        {
          "internalType": "uint256",
          "name": "",
          "type": "uint256"
        }
      ],
      "name": "authorities",
      "outputs": [
        {
          "internalType": "uint256",
          "name": "id",
          "type": "uint256"
        },
        {
          "internalType": "string",
          "name": "name",
          "type": "string"
        },
        {
          "internalType": "string",
          "name": "sigla",
          "type": "string"
        },
        {
          "internalType": "address",
          "name": "authoritieAddress",
          "type": "address"
        }
      ],
      "stateMutability": "view",
      "type": "function"
    },
    {
      "inputs": [],
      "name": "authoritiesCount",
      "outputs": [
        {
          "internalType": "uint256",
          "name": "",
          "type": "uint256"
        }
      ],
      "stateMutability": "view",
      "type": "function"
    },
    {
      "inputs": [
        {
          "internalType": "uint256",
          "name": "",
          "type": "uint256"
        }
      ],
      "name": "authoritiesList",
      "outputs": [
        {
          "internalType": "address",
          "name": "",
          "type": "address"
        }
      ],
      "stateMutability": "view",
      "type": "function"
    },
    {
      "inputs": [
        {
          "internalType": "uint256",
          "name": "",
          "type": "uint256"
        }
      ],
      "name": "authoritiesListUint",
      "outputs": [
        {
          "internalType": "uint256",
          "name": "",
          "type": "uint256"
        }
      ],
      "stateMutability": "view",
      "type": "function"
    },
    {
      "inputs": [
        {
          "internalType": "uint256",
          "name": "",
          "type": "uint256"
        }
      ],
      "name": "driverListUint",
      "outputs": [
        {
          "internalType": "uint256",
          "name": "",
          "type": "uint256"
        }
      ],
      "stateMutability": "view",
      "type": "function"
    },
    {
      "inputs": [
        {
          "internalType": "uint256",
          "name": "",
          "type": "uint256"
        }
      ],
      "name": "drivers",
      "outputs": [
        {
          "internalType": "uint256",
          "name": "id",
          "type": "uint256"
        },
        {
          "internalType": "string",
          "name": "name",
          "type": "string"
        },
        {
          "internalType": "uint256",
          "name": "numberOfPoints",
          "type": "uint256"
        },
        {
          "internalType": "address",
          "name": "driverAddress",
          "type": "address"
        }
      ],
      "stateMutability": "view",
      "type": "function"
    },
    {
      "inputs": [],
      "name": "driversCount",
      "outputs": [
        {
          "internalType": "uint256",
          "name": "",
          "type": "uint256"
        }
      ],
      "stateMutability": "view",
      "type": "function"
    },
    {
      "inputs": [
        {
          "internalType": "uint256",
          "name": "",
          "type": "uint256"
        }
      ],
      "name": "driversList",
      "outputs": [
        {
          "internalType": "address",
          "name": "",
          "type": "address"
        }
      ],
      "stateMutability": "view",
      "type": "function"
    },
    {
      "inputs": [
        {
          "internalType": "uint256",
          "name": "authoritieId",
          "type": "uint256"
        }
      ],
      "name": "getAuthoritieInformationById",
      "outputs": [
        {
          "internalType": "string",
          "name": "name",
          "type": "string"
        },
        {
          "internalType": "string",
          "name": "sigla",
          "type": "string"
        },
        {
          "internalType": "address",
          "name": "authoritieAddress",
          "type": "address"
        }
      ],
      "stateMutability": "view",
      "type": "function"
    },
    {
      "inputs": [
        {
          "internalType": "uint256",
          "name": "driverId",
          "type": "uint256"
        }
      ],
      "name": "getDriverInformationById",
      "outputs": [
        {
          "internalType": "string",
          "name": "name",
          "type": "string"
        },
        {
          "internalType": "uint256",
          "name": "numberOfPoints",
          "type": "uint256"
        },
        {
          "internalType": "address",
          "name": "driverAddress",
          "type": "address"
        }
      ],
      "stateMutability": "view",
      "type": "function"
    },
    {
      "inputs": [
        {
          "internalType": "uint256",
          "name": "ticket_id",
          "type": "uint256"
        }
      ],
      "name": "getTicketInformationById",
      "outputs": [
        {
          "internalType": "string",
          "name": "vehiclePlate",
          "type": "string"
        },
        {
          "internalType": "uint256",
          "name": "infractionCategory",
          "type": "uint256"
        },
        {
          "internalType": "string",
          "name": "dateInfraction",
          "type": "string"
        },
        {
          "internalType": "uint256",
          "name": "infractionPoints",
          "type": "uint256"
        },
        {
          "internalType": "string",
          "name": "observations",
          "type": "string"
        },
        {
          "internalType": "uint256",
          "name": "valueToPay",
          "type": "uint256"
        },
        {
          "internalType": "string",
          "name": "statusOfInfraction",
          "type": "string"
        },
        {
          "internalType": "address",
          "name": "infractorDriverAddress",
          "type": "address"
        },
        {
          "internalType": "address",
          "name": "authorityResponsableAdress",
          "type": "address"
        }
      ],
      "stateMutability": "view",
      "type": "function"
    },
    {
      "inputs": [],
      "name": "ownerInfraction",
      "outputs": [
        {
          "internalType": "address",
          "name": "",
          "type": "address"
        }
      ],
      "stateMutability": "view",
      "type": "function"
    },
    {
      "inputs": [
        {
          "internalType": "uint256",
          "name": "",
          "type": "uint256"
        }
      ],
      "name": "ticketList",
      "outputs": [
        {
          "internalType": "uint256",
          "name": "",
          "type": "uint256"
        }
      ],
      "stateMutability": "view",
      "type": "function"
    },
    {
      "inputs": [
        {
          "internalType": "uint256",
          "name": "",
          "type": "uint256"
        }
      ],
      "name": "tickets",
      "outputs": [
        {
          "internalType": "uint256",
          "name": "id",
          "type": "uint256"
        },
        {
          "internalType": "string",
          "name": "vehiclePlate",
          "type": "string"
        },
        {
          "internalType": "uint256",
          "name": "infractionCategory",
          "type": "uint256"
        },
        {
          "internalType": "string",
          "name": "dateInfraction",
          "type": "string"
        },
        {
          "internalType": "uint256",
          "name": "infractionPoints",
          "type": "uint256"
        },
        {
          "internalType": "string",
          "name": "observations",
          "type": "string"
        },
        {
          "internalType": "uint256",
          "name": "valueToPay",
          "type": "uint256"
        },
        {
          "internalType": "string",
          "name": "statusOfInfraction",
          "type": "string"
        },
        {
          "internalType": "bool",
          "name": "payed",
          "type": "bool"
        },
        {
          "internalType": "address",
          "name": "infractorDriverAddress",
          "type": "address"
        },
        {
          "internalType": "address payable",
          "name": "authorityResponsableAdress",
          "type": "address"
        }
      ],
      "stateMutability": "view",
      "type": "function"
    },
    {
      "inputs": [],
      "name": "ticketsCount",
      "outputs": [
        {
          "internalType": "uint256",
          "name": "",
          "type": "uint256"
        }
      ],
      "stateMutability": "view",
      "type": "function"
    },
    {
      "inputs": [
        {
          "internalType": "uint256",
          "name": "",
          "type": "uint256"
        }
      ],
      "name": "tranferTicketsRequests",
      "outputs": [
        {
          "internalType": "uint256",
          "name": "id",
          "type": "uint256"
        },
        {
          "internalType": "uint256",
          "name": "ticketId",
          "type": "uint256"
        },
        {
          "internalType": "uint256",
          "name": "status",
          "type": "uint256"
        },
        {
          "internalType": "address",
          "name": "currentOwnerAddress",
          "type": "address"
        },
        {
          "internalType": "address",
          "name": "requestedInfractorAddress",
          "type": "address"
        }
      ],
      "stateMutability": "view",
      "type": "function"
    },
    {
      "inputs": [],
      "name": "transferTicketsCount",
      "outputs": [
        {
          "internalType": "uint256",
          "name": "",
          "type": "uint256"
        }
      ],
      "stateMutability": "view",
      "type": "function"
    }
  ],
  "bytecode": "0x60806040523480156200001157600080fd5b50620000876040518060600160405280602281526020016200360e602291396040518060400160405280600481526020017f444e495400000000000000000000000000000000000000000000000000000000815250734ec72b1bd5b4f6c6aecf9630a0e6f0479c0b2477620004e360201b60201c565b620000fc604051806060016040528060368152602001620035d8603691396040518060400160405280600981526020017f44455452414e2d44460000000000000000000000000000000000000000000000815250737fe8c20672fa2147d0db1faa8c49fbeba00f0c23620004e360201b60201c565b620001596040518060400160405280600581526020017f4a6fc3a36f000000000000000000000000000000000000000000000000000000815250600073f6a3d407e0013b400eb355f70b99ac71644583f16200074760201b60201c565b620001b66040518060400160405280600581526020017f5061756c6f00000000000000000000000000000000000000000000000000000081525060007321aee1a9597bc9e8e1ef14c4fd6d3fe55a9027b46200074760201b60201c565b620002136040518060400160405280600581526020017f4e756e6573000000000000000000000000000000000000000000000000000000815250600073bbd25469b0f2f569511c195a73408d7dcceb9edb6200074760201b60201c565b620002706040518060400160405280600681526020017f536f6172657300000000000000000000000000000000000000000000000000008152506000733c5b21d203802d2600ca0acbffd7b24075c0ff796200074760201b60201c565b6200033f6040518060400160405280600881526020017f4142432d3132333400000000000000000000000000000000000000000000000081525060016040518060400160405280600a81526020017f30312f30312f323031390000000000000000000000000000000000000000000081525060056040518060400160405280601981526020017f457374617661206120313130206e6120766961206465203830000000000000008152506001600073f6a3d407e0013b400eb355f70b99ac71644583f16200098160201b60201c565b6200040e6040518060400160405280600881526020017f4445462d3536373800000000000000000000000000000000000000000000000081525060026040518060400160405280600a81526020017f30322f30312f323031390000000000000000000000000000000000000000000081525060036040518060400160405280601881526020017f4573746176612061203930206e61207669612064652035300000000000000000815250600260017321aee1a9597bc9e8e1ef14c4fd6d3fe55a9027b46200098160201b60201c565b620004dd6040518060400160405280600881526020017f4748492d3939313000000000000000000000000000000000000000000000000081525060026040518060400160405280600a81526020017f30332f30312f323031390000000000000000000000000000000000000000000081525060036040518060400160405280601881526020017f4573746176612061203930206e612076696120646520353000000000000000008152506002600173bbd25469b0f2f569511c195a73408d7dcceb9edb6200098160201b60201c565b62000ce9565b604051806080016040528060025481526020018481526020018381526020018273ffffffffffffffffffffffffffffffffffffffff16815250600660008373ffffffffffffffffffffffffffffffffffffffff1673ffffffffffffffffffffffffffffffffffffffff1681526020019081526020016000206000820151816000015560208201518160010190805190602001906200058392919062000c3a565b506040820151816002019080519060200190620005a292919062000c3a565b5060608201518160030160006101000a81548173ffffffffffffffffffffffffffffffffffffffff021916908373ffffffffffffffffffffffffffffffffffffffff160217905550905050604051806080016040528060025481526020018481526020018381526020018273ffffffffffffffffffffffffffffffffffffffff168152506007600060025481526020019081526020016000206000820151816000015560208201518160010190805190602001906200066392919062000c3a565b5060408201518160020190805190602001906200068292919062000c3a565b5060608201518160030160006101000a81548173ffffffffffffffffffffffffffffffffffffffff021916908373ffffffffffffffffffffffffffffffffffffffff1602179055509050506002600081548092919060010191905055507f571af4ef049735001218acc61d7c337816c4811c0113ca1b34d0ce7a52426c2933604051808273ffffffffffffffffffffffffffffffffffffffff1673ffffffffffffffffffffffffffffffffffffffff16815260200191505060405180910390a1505050565b604051806080016040528060015481526020018481526020018381526020018273ffffffffffffffffffffffffffffffffffffffff16815250600560008373ffffffffffffffffffffffffffffffffffffffff1673ffffffffffffffffffffffffffffffffffffffff168152602001908152602001600020600082015181600001556020820151816001019080519060200190620007e792919062000c3a565b506040820151816002015560608201518160030160006101000a81548173ffffffffffffffffffffffffffffffffffffffff021916908373ffffffffffffffffffffffffffffffffffffffff160217905550905050604051806080016040528060015481526020018481526020018381526020018273ffffffffffffffffffffffffffffffffffffffff16815250600460006001548152602001908152602001600020600082015181600001556020820151816001019080519060200190620008b292919062000c3a565b506040820151816002015560608201518160030160006101000a81548173ffffffffffffffffffffffffffffffffffffffff021916908373ffffffffffffffffffffffffffffffffffffffff1602179055509050506001600081548092919060010191905055507f42f42c87a01c226c64b5861c76adc37139f2634236ddf04893a06d6bbeab782533604051808273ffffffffffffffffffffffffffffffffffffffff1673ffffffffffffffffffffffffffffffffffffffff16815260200191505060405180910390a1505050565b60405180610140016040528060005481526020018981526020018881526020018781526020018681526020018581526020018481526020018381526020018273ffffffffffffffffffffffffffffffffffffffff1681526020013373ffffffffffffffffffffffffffffffffffffffff16815250600360008054815260200190815260200160002060008201518160000155602082015181600101908051906020019062000a3192919062000c3a565b5060408201518160020155606082015181600301908051906020019062000a5a92919062000c3a565b506080820151816004015560a082015181600501908051906020019062000a8392919062000c3a565b5060c0820151816006015560e082015181600701556101008201518160080160006101000a81548173ffffffffffffffffffffffffffffffffffffffff021916908373ffffffffffffffffffffffffffffffffffffffff1602179055506101208201518160090160006101000a81548173ffffffffffffffffffffffffffffffffffffffff021916908373ffffffffffffffffffffffffffffffffffffffff160217905550905050600085600560008473ffffffffffffffffffffffffffffffffffffffff1673ffffffffffffffffffffffffffffffffffffffff1681526020019081526020016000206002015401905080600560008473ffffffffffffffffffffffffffffffffffffffff1673ffffffffffffffffffffffffffffffffffffffff168152602001908152602001600020600201819055507fee47ab23acb2b4c8a4667c05755aa8eca2404d90a1325c68ed0ad1f286a0dd5e33604051808273ffffffffffffffffffffffffffffffffffffffff1673ffffffffffffffffffffffffffffffffffffffff16815260200191505060405180910390a16000808154809291906001019190505550505050505050505050565b828054600181600116156101000203166002900490600052602060002090601f016020900481019282601f1062000c7d57805160ff191683800117855562000cae565b8280016001018555821562000cae579182015b8281111562000cad57825182559160200191906001019062000c90565b5b50905062000cbd919062000cc1565b5090565b62000ce691905b8082111562000ce257600081600090555060010162000cc8565b5090565b90565b6128df8062000cf96000396000f3fe608060405234801561001057600080fd5b506004361061012b5760003560e01c806375f857ae116100ad578063a22d27d611610071578063a22d27d614610fd8578063bd8d1e821461101a578063f2603f0414611038578063f6d5e93e1461107a578063f79e5450146111dd5761012b565b806375f857ae146109305780639628540314610b31578063987d05fb14610b7b5780639d59fbf514610cc1578063a0dd455114610ef35761012b565b806346eee11d116100f457806346eee11d1461036a578063494503d41461044b57806350b44712146105985780635996ac76146107a05780636888d69f146109125761012b565b8062cc46cf1461013057806306a901cc1461022e5780630da0474d1461029c5780631644e7af1461030a57806340756f3314610328575b600080fd5b6101726004803603602081101561014657600080fd5b81019080803573ffffffffffffffffffffffffffffffffffffffff1690602001909291905050506112c5565b60405180858152602001806020018481526020018373ffffffffffffffffffffffffffffffffffffffff1673ffffffffffffffffffffffffffffffffffffffff168152602001828103825285818151815260200191508051906020019080838360005b838110156101f05780820151818401526020810190506101d5565b50505050905090810190601f16801561021d5780820380516001836020036101000a031916815260200191505b509550505050505060405180910390f35b61025a6004803603602081101561024457600080fd5b81019080803590602001909291905050506113ad565b604051808273ffffffffffffffffffffffffffffffffffffffff1673ffffffffffffffffffffffffffffffffffffffff16815260200191505060405180910390f35b6102c8600480360360208110156102b257600080fd5b81019080803590602001909291905050506113e9565b604051808273ffffffffffffffffffffffffffffffffffffffff1673ffffffffffffffffffffffffffffffffffffffff16815260200191505060405180910390f35b610312611425565b6040518082815260200191505060405180910390f35b6103546004803603602081101561033e57600080fd5b810190808035906020019092919050505061142b565b6040518082815260200191505060405180910390f35b6103966004803603602081101561038057600080fd5b810190808035906020019092919050505061144c565b60405180806020018481526020018373ffffffffffffffffffffffffffffffffffffffff1673ffffffffffffffffffffffffffffffffffffffff168152602001828103825285818151815260200191508051906020019080838360005b8381101561040e5780820151818401526020810190506103f3565b50505050905090810190601f16801561043b5780820380516001836020036101000a031916815260200191505b5094505050505060405180910390f35b6104776004803603602081101561046157600080fd5b810190808035906020019092919050505061155b565b6040518085815260200180602001806020018473ffffffffffffffffffffffffffffffffffffffff1673ffffffffffffffffffffffffffffffffffffffff168152602001838103835286818151815260200191508051906020019080838360005b838110156104f35780820151818401526020810190506104d8565b50505050905090810190601f1680156105205780820380516001836020036101000a031916815260200191505b50838103825285818151815260200191508051906020019080838360005b8381101561055957808201518184015260208101905061053e565b50505050905090810190601f1680156105865780820380516001836020036101000a031916815260200191505b50965050505050505060405180910390f35b6105c4600480360360208110156105ae57600080fd5b81019080803590602001909291905050506116db565b604051808b8152602001806020018a815260200180602001898152602001806020018881526020018781526020018673ffffffffffffffffffffffffffffffffffffffff1673ffffffffffffffffffffffffffffffffffffffff1681526020018573ffffffffffffffffffffffffffffffffffffffff1673ffffffffffffffffffffffffffffffffffffffff16815260200184810384528d818151815260200191508051906020019080838360005b8381101561068e578082015181840152602081019050610673565b50505050905090810190601f1680156106bb5780820380516001836020036101000a031916815260200191505b5084810383528b818151815260200191508051906020019080838360005b838110156106f45780820151818401526020810190506106d9565b50505050905090810190601f1680156107215780820380516001836020036101000a031916815260200191505b50848103825289818151815260200191508051906020019080838360005b8381101561075a57808201518184015260208101905061073f565b50505050905090810190601f1680156107875780820380516001836020036101000a031916815260200191505b509d505050505050505050505050505060405180910390f35b610910600480360360608110156107b657600080fd5b81019080803590602001906401000000008111156107d357600080fd5b8201836020820111156107e557600080fd5b8035906020019184600183028401116401000000008311171561080757600080fd5b91908080601f016020809104026020016040519081016040528093929190818152602001838380828437600081840152601f19601f8201169050808301925050505050505091929192908035906020019064010000000081111561086a57600080fd5b82018360208201111561087c57600080fd5b8035906020019184600183028401116401000000008311171561089e57600080fd5b91908080601f016020809104026020016040519081016040528093929190818152602001838380828437600081840152601f19601f820116905080830192505050505050509192919290803573ffffffffffffffffffffffffffffffffffffffff169060200190929190505050611937565b005b61091a611b93565b6040518082815260200191505060405180910390f35b61095c6004803603602081101561094657600080fd5b8101908080359060200190929190505050611b99565b60405180806020018a815260200180602001898152602001806020018881526020018781526020018673ffffffffffffffffffffffffffffffffffffffff1673ffffffffffffffffffffffffffffffffffffffff1681526020018573ffffffffffffffffffffffffffffffffffffffff1673ffffffffffffffffffffffffffffffffffffffff16815260200184810384528d818151815260200191508051906020019080838360005b83811015610a20578082015181840152602081019050610a05565b50505050905090810190601f168015610a4d5780820380516001836020036101000a031916815260200191505b5084810383528b818151815260200191508051906020019080838360005b83811015610a86578082015181840152602081019050610a6b565b50505050905090810190601f168015610ab35780820380516001836020036101000a031916815260200191505b50848103825289818151815260200191508051906020019080838360005b83811015610aec578082015181840152602081019050610ad1565b50505050905090810190601f168015610b195780820380516001836020036101000a031916815260200191505b509c5050505050505050505050505060405180910390f35b610b39611e9f565b604051808273ffffffffffffffffffffffffffffffffffffffff1673ffffffffffffffffffffffffffffffffffffffff16815260200191505060405180910390f35b610ba760048036036020811015610b9157600080fd5b8101908080359060200190929190505050611ec5565b6040518080602001806020018473ffffffffffffffffffffffffffffffffffffffff1673ffffffffffffffffffffffffffffffffffffffff168152602001838103835286818151815260200191508051906020019080838360005b83811015610c1d578082015181840152602081019050610c02565b50505050905090810190601f168015610c4a5780820380516001836020036101000a031916815260200191505b50838103825285818151815260200191508051906020019080838360005b83811015610c83578082015181840152602081019050610c68565b50505050905090810190601f168015610cb05780820380516001836020036101000a031916815260200191505b509550505050505060405180910390f35b610ef16004803603610100811015610cd857600080fd5b8101908080359060200190640100000000811115610cf557600080fd5b820183602082011115610d0757600080fd5b80359060200191846001830284011164010000000083111715610d2957600080fd5b91908080601f016020809104026020016040519081016040528093929190818152602001838380828437600081840152601f19601f8201169050808301925050505050505091929192908035906020019092919080359060200190640100000000811115610d9657600080fd5b820183602082011115610da857600080fd5b80359060200191846001830284011164010000000083111715610dca57600080fd5b91908080601f016020809104026020016040519081016040528093929190818152602001838380828437600081840152601f19601f8201169050808301925050505050505091929192908035906020019092919080359060200190640100000000811115610e3757600080fd5b820183602082011115610e4957600080fd5b80359060200191846001830284011164010000000083111715610e6b57600080fd5b91908080601f016020809104026020016040519081016040528093929190818152602001838380828437600081840152601f19601f8201169050808301925050505050505091929192908035906020019092919080359060200190929190803573ffffffffffffffffffffffffffffffffffffffff16906020019092919050505061206c565b005b610fd660048036036060811015610f0957600080fd5b8101908080359060200190640100000000811115610f2657600080fd5b820183602082011115610f3857600080fd5b80359060200191846001830284011164010000000083111715610f5a57600080fd5b91908080601f016020809104026020016040519081016040528093929190818152602001838380828437600081840152601f19601f82011690508083019250505050505050919291929080359060200190929190803573ffffffffffffffffffffffffffffffffffffffff16906020019092919050505061231f565b005b61100460048036036020811015610fee57600080fd5b8101908080359060200190929190505050612555565b6040518082815260200191505060405180910390f35b611022612576565b6040518082815260200191505060405180910390f35b6110646004803603602081101561104e57600080fd5b810190808035906020019092919050505061257c565b6040518082815260200191505060405180910390f35b6110bc6004803603602081101561109057600080fd5b81019080803573ffffffffffffffffffffffffffffffffffffffff16906020019092919050505061259d565b6040518085815260200180602001806020018473ffffffffffffffffffffffffffffffffffffffff1673ffffffffffffffffffffffffffffffffffffffff168152602001838103835286818151815260200191508051906020019080838360005b8381101561113857808201518184015260208101905061111d565b50505050905090810190601f1680156111655780820380516001836020036101000a031916815260200191505b50838103825285818151815260200191508051906020019080838360005b8381101561119e578082015181840152602081019050611183565b50505050905090810190601f1680156111cb5780820380516001836020036101000a031916815260200191505b50965050505050505060405180910390f35b611209600480360360208110156111f357600080fd5b810190808035906020019092919050505061271d565b60405180858152602001806020018481526020018373ffffffffffffffffffffffffffffffffffffffff1673ffffffffffffffffffffffffffffffffffffffff168152602001828103825285818151815260200191508051906020019080838360005b8381101561128757808201518184015260208101905061126c565b50505050905090810190601f1680156112b45780820380516001836020036101000a031916815260200191505b509550505050505060405180910390f35b6005602052806000526040600020600091509050806000015490806001018054600181600116156101000203166002900480601f0160208091040260200160405190810160405280929190818152602001828054600181600116156101000203166002900480156113775780601f1061134c57610100808354040283529160200191611377565b820191906000526020600020905b81548152906001019060200180831161135a57829003601f168201915b5050505050908060020154908060030160009054906101000a900473ffffffffffffffffffffffffffffffffffffffff16905084565b600b81815481106113ba57fe5b906000526020600020016000915054906101000a900473ffffffffffffffffffffffffffffffffffffffff1681565b600981815481106113f657fe5b906000526020600020016000915054906101000a900473ffffffffffffffffffffffffffffffffffffffff1681565b60005481565b6008818154811061143857fe5b906000526020600020016000915090505481565b6060600080600460008581526020019081526020016000206001018054600181600116156101000203166002900480601f0160208091040260200160405190810160405280929190818152602001828054600181600116156101000203166002900480156114fb5780601f106114d0576101008083540402835291602001916114fb565b820191906000526020600020905b8154815290600101906020018083116114de57829003601f168201915b505050505092506004600085815260200190815260200160002060030160009054906101000a900473ffffffffffffffffffffffffffffffffffffffff169050600460008581526020019081526020016000206002015491509193909250565b6007602052806000526040600020600091509050806000015490806001018054600181600116156101000203166002900480601f01602080910402602001604051908101604052809291908181526020018280546001816001161561010002031660029004801561160d5780601f106115e25761010080835404028352916020019161160d565b820191906000526020600020905b8154815290600101906020018083116115f057829003601f168201915b505050505090806002018054600181600116156101000203166002900480601f0160208091040260200160405190810160405280929190818152602001828054600181600116156101000203166002900480156116ab5780601f10611680576101008083540402835291602001916116ab565b820191906000526020600020905b81548152906001019060200180831161168e57829003601f168201915b5050505050908060030160009054906101000a900473ffffffffffffffffffffffffffffffffffffffff16905084565b6003602052806000526040600020600091509050806000015490806001018054600181600116156101000203166002900480601f01602080910402602001604051908101604052809291908181526020018280546001816001161561010002031660029004801561178d5780601f106117625761010080835404028352916020019161178d565b820191906000526020600020905b81548152906001019060200180831161177057829003601f168201915b505050505090806002015490806003018054600181600116156101000203166002900480601f0160208091040260200160405190810160405280929190818152602001828054600181600116156101000203166002900480156118315780601f1061180657610100808354040283529160200191611831565b820191906000526020600020905b81548152906001019060200180831161181457829003601f168201915b505050505090806004015490806005018054600181600116156101000203166002900480601f0160208091040260200160405190810160405280929190818152602001828054600181600116156101000203166002900480156118d55780601f106118aa576101008083540402835291602001916118d5565b820191906000526020600020905b8154815290600101906020018083116118b857829003601f168201915b5050505050908060060154908060070154908060080160009054906101000a900473ffffffffffffffffffffffffffffffffffffffff16908060090160009054906101000a900473ffffffffffffffffffffffffffffffffffffffff1690508a565b604051806080016040528060025481526020018481526020018381526020018273ffffffffffffffffffffffffffffffffffffffff16815250600660008373ffffffffffffffffffffffffffffffffffffffff1673ffffffffffffffffffffffffffffffffffffffff1681526020019081526020016000206000820151816000015560208201518160010190805190602001906119d5929190612805565b5060408201518160020190805190602001906119f2929190612805565b5060608201518160030160006101000a81548173ffffffffffffffffffffffffffffffffffffffff021916908373ffffffffffffffffffffffffffffffffffffffff160217905550905050604051806080016040528060025481526020018481526020018381526020018273ffffffffffffffffffffffffffffffffffffffff16815250600760006002548152602001908152602001600020600082015181600001556020820151816001019080519060200190611ab1929190612805565b506040820151816002019080519060200190611ace929190612805565b5060608201518160030160006101000a81548173ffffffffffffffffffffffffffffffffffffffff021916908373ffffffffffffffffffffffffffffffffffffffff1602179055509050506002600081548092919060010191905055507f571af4ef049735001218acc61d7c337816c4811c0113ca1b34d0ce7a52426c2933604051808273ffffffffffffffffffffffffffffffffffffffff1673ffffffffffffffffffffffffffffffffffffffff16815260200191505060405180910390a1505050565b60025481565b60606000606060006060600080600080600360008b81526020019081526020016000206001018054600181600116156101000203166002900480601f016020809104026020016040519081016040528092919081815260200182805460018160011615610100020316600290048015611c535780601f10611c2857610100808354040283529160200191611c53565b820191906000526020600020905b815481529060010190602001808311611c3657829003601f168201915b50505050509850600360008b8152602001908152602001600020600201549750600360008b81526020019081526020016000206003018054600181600116156101000203166002900480601f016020809104026020016040519081016040528092919081815260200182805460018160011615610100020316600290048015611d1d5780601f10611cf257610100808354040283529160200191611d1d565b820191906000526020600020905b815481529060010190602001808311611d0057829003601f168201915b50505050509650600360008b8152602001908152602001600020600401549550600360008b81526020019081526020016000206005018054600181600116156101000203166002900480601f016020809104026020016040519081016040528092919081815260200182805460018160011615610100020316600290048015611de75780601f10611dbc57610100808354040283529160200191611de7565b820191906000526020600020905b815481529060010190602001808311611dca57829003601f168201915b50505050509450600360008b8152602001908152602001600020600601549350600360008b8152602001908152602001600020600701549250600360008b815260200190815260200160002060080160009054906101000a900473ffffffffffffffffffffffffffffffffffffffff169150600360008b815260200190815260200160002060090160009054906101000a900473ffffffffffffffffffffffffffffffffffffffff1690509193959799909294969850565b600d60009054906101000a900473ffffffffffffffffffffffffffffffffffffffff1681565b6060806000600760008581526020019081526020016000206001018054600181600116156101000203166002900480601f016020809104026020016040519081016040528092919081815260200182805460018160011615610100020316600290048015611f745780601f10611f4957610100808354040283529160200191611f74565b820191906000526020600020905b815481529060010190602001808311611f5757829003601f168201915b50505050509250600760008581526020019081526020016000206002018054600181600116156101000203166002900480601f0160208091040260200160405190810160405280929190818152602001828054600181600116156101000203166002900480156120255780601f10611ffa57610100808354040283529160200191612025565b820191906000526020600020905b81548152906001019060200180831161200857829003601f168201915b505050505091506007600085815260200190815260200160002060030160009054906101000a900473ffffffffffffffffffffffffffffffffffffffff1690509193909250565b60405180610140016040528060005481526020018981526020018881526020018781526020018681526020018581526020018481526020018381526020018273ffffffffffffffffffffffffffffffffffffffff1681526020013373ffffffffffffffffffffffffffffffffffffffff16815250600360008054815260200190815260200160002060008201518160000155602082015181600101908051906020019061211a929190612805565b50604082015181600201556060820151816003019080519060200190612141929190612805565b506080820151816004015560a0820151816005019080519060200190612168929190612805565b5060c0820151816006015560e082015181600701556101008201518160080160006101000a81548173ffffffffffffffffffffffffffffffffffffffff021916908373ffffffffffffffffffffffffffffffffffffffff1602179055506101208201518160090160006101000a81548173ffffffffffffffffffffffffffffffffffffffff021916908373ffffffffffffffffffffffffffffffffffffffff160217905550905050600085600560008473ffffffffffffffffffffffffffffffffffffffff1673ffffffffffffffffffffffffffffffffffffffff1681526020019081526020016000206002015401905080600560008473ffffffffffffffffffffffffffffffffffffffff1673ffffffffffffffffffffffffffffffffffffffff168152602001908152602001600020600201819055507fee47ab23acb2b4c8a4667c05755aa8eca2404d90a1325c68ed0ad1f286a0dd5e33604051808273ffffffffffffffffffffffffffffffffffffffff1673ffffffffffffffffffffffffffffffffffffffff16815260200191505060405180910390a16000808154809291906001019190505550505050505050505050565b604051806080016040528060015481526020018481526020018381526020018273ffffffffffffffffffffffffffffffffffffffff16815250600560008373ffffffffffffffffffffffffffffffffffffffff1673ffffffffffffffffffffffffffffffffffffffff1681526020019081526020016000206000820151816000015560208201518160010190805190602001906123bd929190612805565b506040820151816002015560608201518160030160006101000a81548173ffffffffffffffffffffffffffffffffffffffff021916908373ffffffffffffffffffffffffffffffffffffffff160217905550905050604051806080016040528060015481526020018481526020018381526020018273ffffffffffffffffffffffffffffffffffffffff16815250600460006001548152602001908152602001600020600082015181600001556020820151816001019080519060200190612486929190612805565b506040820151816002015560608201518160030160006101000a81548173ffffffffffffffffffffffffffffffffffffffff021916908373ffffffffffffffffffffffffffffffffffffffff1602179055509050506001600081548092919060010191905055507f42f42c87a01c226c64b5861c76adc37139f2634236ddf04893a06d6bbeab782533604051808273ffffffffffffffffffffffffffffffffffffffff1673ffffffffffffffffffffffffffffffffffffffff16815260200191505060405180910390a1505050565b600c818154811061256257fe5b906000526020600020016000915090505481565b60015481565b600a818154811061258957fe5b906000526020600020016000915090505481565b6006602052806000526040600020600091509050806000015490806001018054600181600116156101000203166002900480601f01602080910402602001604051908101604052809291908181526020018280546001816001161561010002031660029004801561264f5780601f106126245761010080835404028352916020019161264f565b820191906000526020600020905b81548152906001019060200180831161263257829003601f168201915b505050505090806002018054600181600116156101000203166002900480601f0160208091040260200160405190810160405280929190818152602001828054600181600116156101000203166002900480156126ed5780601f106126c2576101008083540402835291602001916126ed565b820191906000526020600020905b8154815290600101906020018083116126d057829003601f168201915b5050505050908060030160009054906101000a900473ffffffffffffffffffffffffffffffffffffffff16905084565b6004602052806000526040600020600091509050806000015490806001018054600181600116156101000203166002900480601f0160208091040260200160405190810160405280929190818152602001828054600181600116156101000203166002900480156127cf5780601f106127a4576101008083540402835291602001916127cf565b820191906000526020600020905b8154815290600101906020018083116127b257829003601f168201915b5050505050908060020154908060030160009054906101000a900473ffffffffffffffffffffffffffffffffffffffff16905084565b828054600181600116156101000203166002900490600052602060002090601f016020900481019282601f1061284657805160ff1916838001178555612874565b82800160010185558215612874579182015b82811115612873578251825591602001919060010190612858565b5b5090506128819190612885565b5090565b6128a791905b808211156128a357600081600090555060010161288b565b5090565b9056fea265627a7a723158202c56449343ca5f74da82a71db3c9d85716575de35a821ddf93a011a6ffb5f21b64736f6c63430005100032446570617274616d656e746f20457374616475616c206465205472c3a26e7369746f20646f20446973747269746f204665646572616c446570617274616d656e746f204e6163696f6e616c206465205472c3a26e7369746f",
  "source": "pragma solidity ^0.5.0;\n\ncontract Infraction{\n\n    // Public Variables\n    uint public ticketsCount;\n    uint public driversCount;\n    uint public authoritiesCount;\n\n\n    //Model a trafic ticket\n    struct TraficTicket{\n        uint id;\n        string vehiclePlate;\n        uint infractionCategory; // 1-Leve 2-Mdia 3-Grave 4-Gravssima\n        string dateInfraction;\n        uint infractionPoints;\n        string observations;\n        uint valueToPay;\n        uint statusOfInfraction;\n\n        address infractorDriverAddress;\n        address authorityResponsableAdress;//Owner\n    }\n\n    // Model a Driver\n    struct Drivers{\n        uint id;\n        string name;\n        uint numberOfPoints;\n        address driverAddress;\n\n    }\n\n    // Model Authoritie\n    struct Authorities{\n        uint id;\n        string name;\n        string sigla;\n        address authoritieAddress;\n    }\n\n\n    // Map Tickets\n    mapping(uint => TraficTicket) public tickets;\n    mapping(uint => Drivers) public drivers; // Para simular o banco auxiliar de motoristas\n    mapping(address => Drivers) public driversMap;\n    mapping(address => Authorities) public authoritiesMap;\n    mapping(uint => Authorities) public authorities; // Para simular o banco auxiliar de autoridades\n\n    // Create Lists\n    uint[] public ticketList;\n    address[] public driversList;\n    uint[] public driverListUint;\n    address[] public authoritiesList;\n    uint[] public authoritiesListUint;\n\n    // Address\n    address public ownerInfraction; // Who register the infraction. Ex: Police Man\n\n\n    // Events\n    event registeredInfraction (\n        address authoritieAddress\n    );\n    event registeredDriverEvent (\n        address authoritieAddress\n    );\n    event registeredAuthoritieEvent (\n        address authoritieAddress\n    );\n\n\n    //  ============================================================== CONSTRUCTOR ==============================================================\n    //  Adding Some initial informations to the Blockchain\n\n    constructor() public {\n        /*\n                        AUTHORITIES GANACHE ACCOUNTS\n            - INDEX 0 -> 0x4Ec72B1Bd5b4f6c6aECF9630a0e6F0479c0b2477\n            - INDEX 1 -> 0x7Fe8C20672FA2147d0db1fAa8C49fBEbA00f0c23\n        */\n        //Register some Authorities\n        registerAuthoritie(\"Departamento Nacional de Trnsito\",\"DNIT\",0x4Ec72B1Bd5b4f6c6aECF9630a0e6F0479c0b2477);\n        registerAuthoritie(\"Departamento Estadual de Trnsito do Distrito Federal\",\"DETRAN-DF\",0x7Fe8C20672FA2147d0db1fAa8C49fBEbA00f0c23);\n\n        /*\n                        DRIVERS GANACHE ACCOUNTS\n            - INDEX 2 -> 0xf6A3D407E0013b400Eb355F70B99ac71644583F1\n            - INDEX 3 -> 0x21AeE1a9597Bc9e8E1EF14C4fD6D3fE55A9027b4\n            - INDEX 4 -> 0xBbD25469b0f2F569511C195a73408D7DcceB9eDb\n        */\n        // Register some drivers\n        registerDriver(\"Joo\",0,0xf6A3D407E0013b400Eb355F70B99ac71644583F1);\n        registerDriver(\"Paulo\",0,0x21AeE1a9597Bc9e8E1EF14C4fD6D3fE55A9027b4);\n        registerDriver(\"Nunes\",0,0xBbD25469b0f2F569511C195a73408D7DcceB9eDb);\n        registerDriver(\"Soares\",0,0x3c5B21D203802D2600cA0AcBffd7B24075C0Ff79);\n\n        // Registering Some Tickets\n        registerInfraction(\"ABC-1234\",1,\"01/01/2019\",5,\"Estava a 110 na via de 80\",1,0,0xf6A3D407E0013b400Eb355F70B99ac71644583F1);\n        registerInfraction(\"DEF-5678\",2,\"02/01/2019\",3,\"Estava a 90 na via de 50\",2,1,0x21AeE1a9597Bc9e8E1EF14C4fD6D3fE55A9027b4);\n        registerInfraction(\"GHI-9910\",2,\"03/01/2019\",3,\"Estava a 90 na via de 50\",2,1,0xBbD25469b0f2F569511C195a73408D7DcceB9eDb);\n\n    }\n\n    //  ============================================================== REGISTER FUNCTIONS ==============================================================\n\n    function registerAuthoritie(string memory _name,string memory _sigla, address _authoritieAddress) public{\n\n        authoritiesMap[_authoritieAddress] = Authorities(authoritiesCount, _name, _sigla, _authoritieAddress);\n        authorities[authoritiesCount] = Authorities(authoritiesCount, _name, _sigla, _authoritieAddress);\n\n        authoritiesCount++;\n        emit registeredAuthoritieEvent(msg.sender);\n\n    }\n\n\n    function registerDriver(string memory _name,uint numberOfPoints, address _driverAddress) public{\n\n        driversMap[_driverAddress] = Drivers(driversCount, _name, numberOfPoints, _driverAddress);\n        drivers[driversCount] = Drivers(driversCount, _name, numberOfPoints, _driverAddress);\n\n        driversCount++;\n        emit registeredDriverEvent(msg.sender);\n    }\n\n\n    function registerInfraction(string memory _vehiclePlate, uint _infractionCategory,\n                                string memory _dateInfraction, uint _infractionPoints,\n                                string memory _observations, uint _valueToPay,\n                                uint _statusOfInfraction, address _infractorDriverAddress\n    )public{\n        // Require that the account registering the infraction is a authoritie\n        //require(authorities[msg.sender]) = true;\n\n        tickets[ticketsCount] = TraficTicket(ticketsCount, _vehiclePlate, _infractionCategory, _dateInfraction, _infractionPoints, _observations,\n                                _valueToPay, _statusOfInfraction, _infractorDriverAddress, msg.sender);\n\n        // Update driver points\n        uint driverPointsAfterInfraction = driversMap[_infractorDriverAddress].numberOfPoints + _infractionPoints;\n        driversMap[_infractorDriverAddress].numberOfPoints = driverPointsAfterInfraction;\n\n        // trigger infraction registered event\n        emit registeredInfraction(msg.sender);\n        ticketsCount++;\n    }\n\n    //  ============================================================== GET INFORMATION FUNCTIONS ==============================================================\n\n    function getTicketInformation(uint ticket_id) public view returns(string memory vehiclePlate, uint infractionCategory,\n                                string memory dateInfraction, uint infractionPoints,\n                                string memory observations, uint valueToPay,\n                                uint statusOfInfraction, address infractorDriverAddress, address authorityResponsableAdress\n    ){\n        vehiclePlate = tickets[ticket_id].vehiclePlate;\n        infractionCategory = tickets[ticket_id].infractionCategory;\n        dateInfraction = tickets[ticket_id].dateInfraction;\n        infractionPoints = tickets[ticket_id].infractionPoints;\n        observations = tickets[ticket_id].observations;\n        valueToPay = tickets[ticket_id].valueToPay;\n        statusOfInfraction = tickets[ticket_id].statusOfInfraction;\n        infractorDriverAddress = tickets[ticket_id].infractorDriverAddress;\n        authorityResponsableAdress = tickets[ticket_id].authorityResponsableAdress;\n    }\n\n\n    /*function getDriverInformation(address driverAddress) public view returns (string memory name,uint numberOfPoints){\n        name = drivers[driverAddress].name;\n        numberOfPoints = drivers[driverAddress].numberOfPoints;\n\n    }*/\n\n\n    function getDriverInformation(uint driverId) public view returns (string memory name,uint numberOfPoints, address driverAddress){\n        name = drivers[driverId].name;\n        driverAddress = drivers[driverId].driverAddress;\n        numberOfPoints = drivers[driverId].numberOfPoints;\n\n\n    }\n\n    /*function getAuthoritieInformation(address authoritieAddress) public view returns (string memory name, string memory sigla){\n        name = authorities[authoritieAddress].name;\n        sigla = authorities[authoritieAddress].sigla;\n\n    }*/\n\n    function getAuthoritieInformation(uint authoritieId) public view returns (string memory name, string memory sigla,\n    address authoritieAddress){\n        name = authorities[authoritieId].name;\n        sigla = authorities[authoritieId].sigla;\n        authoritieAddress = authorities[authoritieId].authoritieAddress;\n    }\n\n\n}\n",
  "sourcePath": "/home/jpnsoares/TCC/aplicacaotccblockchain/blockchain/contracts/Infraction.sol",
  "compiler": {
    "name": "solc",
    "version": "0.5.16+commit.9c3226ce.Emscripten.clang"
  },
  "schemaVersion": "3.2.4",
  "updatedAt": "2020-09-01T01:18:51.157Z",
  "networkType": "ethereum",
  "devdoc": {
    "methods": {}
  },
  "userdoc": {
    "methods": {}
  }
}