{
  "contractName": "Infraction",
  "abi": [
    {
      "constant": true,
      "inputs": [
        {
          "name": "",
          "type": "uint256"
        }
      ],
      "name": "authoritiesList",
      "outputs": [
        {
          "name": "",
          "type": "address"
        }
      ],
      "payable": false,
      "stateMutability": "view",
      "type": "function"
    },
    {
      "constant": true,
      "inputs": [
        {
          "name": "",
          "type": "uint256"
        }
      ],
      "name": "driversList",
      "outputs": [
        {
          "name": "",
          "type": "address"
        }
      ],
      "payable": false,
      "stateMutability": "view",
      "type": "function"
    },
    {
      "constant": true,
      "inputs": [],
      "name": "ticketsCount",
      "outputs": [
        {
          "name": "",
          "type": "uint256"
        }
      ],
      "payable": false,
      "stateMutability": "view",
      "type": "function"
    },
    {
      "constant": true,
      "inputs": [
        {
          "name": "",
          "type": "uint256"
        }
      ],
      "name": "ticketList",
      "outputs": [
        {
          "name": "",
          "type": "uint256"
        }
      ],
      "payable": false,
      "stateMutability": "view",
      "type": "function"
    },
    {
      "constant": true,
      "inputs": [
        {
          "name": "",
          "type": "address"
        }
      ],
      "name": "drivers",
      "outputs": [
        {
          "name": "name",
          "type": "string"
        },
        {
          "name": "numberOfPoints",
          "type": "uint256"
        },
        {
          "name": "driverAddress",
          "type": "address"
        }
      ],
      "payable": false,
      "stateMutability": "view",
      "type": "function"
    },
    {
      "constant": true,
      "inputs": [
        {
          "name": "",
          "type": "uint256"
        }
      ],
      "name": "tickets",
      "outputs": [
        {
          "name": "id",
          "type": "uint256"
        },
        {
          "name": "vehiclePlate",
          "type": "string"
        },
        {
          "name": "infractionCategory",
          "type": "uint256"
        },
        {
          "name": "dateInfraction",
          "type": "string"
        },
        {
          "name": "infractionPoints",
          "type": "uint256"
        },
        {
          "name": "observations",
          "type": "string"
        },
        {
          "name": "valueToPay",
          "type": "uint256"
        },
        {
          "name": "statusOfInfraction",
          "type": "uint256"
        },
        {
          "name": "infractorDriverAddress",
          "type": "address"
        },
        {
          "name": "authorityResponsableAdress",
          "type": "address"
        }
      ],
      "payable": false,
      "stateMutability": "view",
      "type": "function"
    },
    {
      "constant": true,
      "inputs": [],
      "name": "authoritiesCount",
      "outputs": [
        {
          "name": "",
          "type": "uint256"
        }
      ],
      "payable": false,
      "stateMutability": "view",
      "type": "function"
    },
    {
      "constant": true,
      "inputs": [
        {
          "name": "",
          "type": "address"
        }
      ],
      "name": "authorities",
      "outputs": [
        {
          "name": "name",
          "type": "string"
        },
        {
          "name": "sigla",
          "type": "string"
        },
        {
          "name": "authoritieAddress",
          "type": "address"
        }
      ],
      "payable": false,
      "stateMutability": "view",
      "type": "function"
    },
    {
      "constant": true,
      "inputs": [],
      "name": "ownerInfraction",
      "outputs": [
        {
          "name": "",
          "type": "address"
        }
      ],
      "payable": false,
      "stateMutability": "view",
      "type": "function"
    },
    {
      "constant": true,
      "inputs": [],
      "name": "driversCount",
      "outputs": [
        {
          "name": "",
          "type": "uint256"
        }
      ],
      "payable": false,
      "stateMutability": "view",
      "type": "function"
    },
    {
      "inputs": [],
      "payable": false,
      "stateMutability": "nonpayable",
      "type": "constructor"
    },
    {
      "anonymous": false,
      "inputs": [
        {
          "indexed": false,
          "name": "authoritieAddress",
          "type": "address"
        }
      ],
      "name": "registeredInfraction",
      "type": "event"
    },
    {
      "constant": false,
      "inputs": [
        {
          "name": "_name",
          "type": "string"
        },
        {
          "name": "_sigla",
          "type": "string"
        },
        {
          "name": "_authoritieAddress",
          "type": "address"
        }
      ],
      "name": "registerAuthoritie",
      "outputs": [],
      "payable": false,
      "stateMutability": "nonpayable",
      "type": "function"
    },
    {
      "constant": false,
      "inputs": [
        {
          "name": "_name",
          "type": "string"
        },
        {
          "name": "numberOfPoints",
          "type": "uint256"
        },
        {
          "name": "_driverAddress",
          "type": "address"
        }
      ],
      "name": "registerDriver",
      "outputs": [],
      "payable": false,
      "stateMutability": "nonpayable",
      "type": "function"
    },
    {
      "constant": false,
      "inputs": [
        {
          "name": "_vehiclePlate",
          "type": "string"
        },
        {
          "name": "_infractionCategory",
          "type": "uint256"
        },
        {
          "name": "_dateInfraction",
          "type": "string"
        },
        {
          "name": "_infractionPoints",
          "type": "uint256"
        },
        {
          "name": "_observations",
          "type": "string"
        },
        {
          "name": "_valueToPay",
          "type": "uint256"
        },
        {
          "name": "_statusOfInfraction",
          "type": "uint256"
        },
        {
          "name": "_infractorDriverAddress",
          "type": "address"
        }
      ],
      "name": "registerInfraction",
      "outputs": [],
      "payable": false,
      "stateMutability": "nonpayable",
      "type": "function"
    },
    {
      "constant": true,
      "inputs": [
        {
          "name": "ticket_id",
          "type": "uint256"
        }
      ],
      "name": "getTicketInformation",
      "outputs": [
        {
          "name": "vehiclePlate",
          "type": "string"
        },
        {
          "name": "infractionCategory",
          "type": "uint256"
        },
        {
          "name": "dateInfraction",
          "type": "string"
        },
        {
          "name": "infractionPoints",
          "type": "uint256"
        },
        {
          "name": "observations",
          "type": "string"
        },
        {
          "name": "valueToPay",
          "type": "uint256"
        },
        {
          "name": "statusOfInfraction",
          "type": "uint256"
        },
        {
          "name": "infractorDriverAddress",
          "type": "address"
        },
        {
          "name": "authorityResponsableAdress",
          "type": "address"
        }
      ],
      "payable": false,
      "stateMutability": "view",
      "type": "function"
    },
    {
      "constant": true,
      "inputs": [
        {
          "name": "driverAddress",
          "type": "address"
        }
      ],
      "name": "getDriverInformation",
      "outputs": [
        {
          "name": "name",
          "type": "string"
        },
        {
          "name": "numberOfPoints",
          "type": "uint256"
        }
      ],
      "payable": false,
      "stateMutability": "view",
      "type": "function"
    },
    {
      "constant": true,
      "inputs": [
        {
          "name": "authoritieAddress",
          "type": "address"
        }
      ],
      "name": "getAuthoritieInformation",
      "outputs": [
        {
          "name": "name",
          "type": "string"
        },
        {
          "name": "sigla",
          "type": "string"
        }
      ],
      "payable": false,
      "stateMutability": "view",
      "type": "function"
    }
  ],
  "bytecode": "0x60806040523480156200001157600080fd5b506200008760405180606001604052806022815260200162002a91602291396040518060400160405280600481526020017f444e495400000000000000000000000000000000000000000000000000000000815250734ec72b1bd5b4f6c6aecf9630a0e6f0479c0b24776200048660201b60201c565b620000fc60405180606001604052806036815260200162002a5b603691396040518060400160405280600981526020017f44455452414e2d44460000000000000000000000000000000000000000000000815250737fe8c20672fa2147d0db1faa8c49fbeba00f0c236200048660201b60201c565b620001596040518060400160405280600581526020017f4a6fc3a36f000000000000000000000000000000000000000000000000000000815250600073f6a3d407e0013b400eb355f70b99ac71644583f16200058360201b60201c565b620001b66040518060400160405280600581526020017f5061756c6f00000000000000000000000000000000000000000000000000000081525060007321aee1a9597bc9e8e1ef14c4fd6d3fe55a9027b46200058360201b60201c565b620002136040518060400160405280600581526020017f4e756e6573000000000000000000000000000000000000000000000000000000815250600073bbd25469b0f2f569511c195a73408d7dcceb9edb6200058360201b60201c565b620002e26040518060400160405280600881526020017f4142432d3132333400000000000000000000000000000000000000000000000081525060016040518060400160405280600a81526020017f30312f30312f323031390000000000000000000000000000000000000000000081525060056040518060400160405280601981526020017f457374617661206120313130206e6120766961206465203830000000000000008152506001600073f6a3d407e0013b400eb355f70b99ac71644583f16200066b60201b60201c565b620003b16040518060400160405280600881526020017f4445462d3536373800000000000000000000000000000000000000000000000081525060026040518060400160405280600a81526020017f30322f30312f323031390000000000000000000000000000000000000000000081525060036040518060400160405280601881526020017f4573746176612061203930206e61207669612064652035300000000000000000815250600260017321aee1a9597bc9e8e1ef14c4fd6d3fe55a9027b46200066b60201b60201c565b620004806040518060400160405280600881526020017f4748492d3939313000000000000000000000000000000000000000000000000081525060026040518060400160405280600a81526020017f30332f30312f323031390000000000000000000000000000000000000000000081525060036040518060400160405280601881526020017f4573746176612061203930206e612076696120646520353000000000000000008152506002600173bbd25469b0f2f569511c195a73408d7dcceb9edb6200066b60201b60201c565b620009d3565b60405180606001604052808481526020018381526020018273ffffffffffffffffffffffffffffffffffffffff16815250600560008373ffffffffffffffffffffffffffffffffffffffff1673ffffffffffffffffffffffffffffffffffffffff16815260200190815260200160002060008201518160000190805190602001906200051492919062000924565b5060208201518160010190805190602001906200053392919062000924565b5060408201518160020160006101000a81548173ffffffffffffffffffffffffffffffffffffffff021916908373ffffffffffffffffffffffffffffffffffffffff160217905550905050505050565b60405180606001604052808481526020018381526020018273ffffffffffffffffffffffffffffffffffffffff16815250600460008373ffffffffffffffffffffffffffffffffffffffff1673ffffffffffffffffffffffffffffffffffffffff16815260200190815260200160002060008201518160000190805190602001906200061192919062000924565b506020820151816001015560408201518160020160006101000a81548173ffffffffffffffffffffffffffffffffffffffff021916908373ffffffffffffffffffffffffffffffffffffffff160217905550905050505050565b600080815480929190600101919050555060405180610140016040528060005481526020018981526020018881526020018781526020018681526020018581526020018481526020018381526020018273ffffffffffffffffffffffffffffffffffffffff1681526020013373ffffffffffffffffffffffffffffffffffffffff1681525060036000805481526020019081526020016000206000820151816000015560208201518160010190805190602001906200072c92919062000924565b506040820151816002015560608201518160030190805190602001906200075592919062000924565b506080820151816004015560a08201518160050190805190602001906200077e92919062000924565b5060c0820151816006015560e082015181600701556101008201518160080160006101000a81548173ffffffffffffffffffffffffffffffffffffffff021916908373ffffffffffffffffffffffffffffffffffffffff1602179055506101208201518160090160006101000a81548173ffffffffffffffffffffffffffffffffffffffff021916908373ffffffffffffffffffffffffffffffffffffffff160217905550905050600085600460008473ffffffffffffffffffffffffffffffffffffffff1673ffffffffffffffffffffffffffffffffffffffff1681526020019081526020016000206001015401905080600460008473ffffffffffffffffffffffffffffffffffffffff1673ffffffffffffffffffffffffffffffffffffffff168152602001908152602001600020600101819055507fee47ab23acb2b4c8a4667c05755aa8eca2404d90a1325c68ed0ad1f286a0dd5e33604051808273ffffffffffffffffffffffffffffffffffffffff1673ffffffffffffffffffffffffffffffffffffffff16815260200191505060405180910390a1505050505050505050565b828054600181600116156101000203166002900490600052602060002090601f016020900481019282601f106200096757805160ff191683800117855562000998565b8280016001018555821562000998579182015b82811115620009975782518255916020019190600101906200097a565b5b509050620009a79190620009ab565b5090565b620009d091905b80821115620009cc576000816000905550600101620009b2565b5090565b90565b61207880620009e36000396000f3fe608060405234801561001057600080fd5b50600436106101005760003560e01c80636888d69f116100975780639d59fbf5116100665780639d59fbf514610b3b578063a0dd455114610d6d578063bd8d1e8214610e52578063d3b4347314610e7057610100565b80636888d69f1461077657806375f857ae1461079457806391223d69146109955780639628540314610af157610100565b806349696bfa116100d357806349696bfa146102415780634aa601861461030557806350b44712146103fc5780635996ac761461060457610100565b806306a901cc146101055780630da0474d146101735780631644e7af146101e157806340756f33146101ff575b600080fd5b6101316004803603602081101561011b57600080fd5b8101908080359060200190929190505050610f99565b604051808273ffffffffffffffffffffffffffffffffffffffff1673ffffffffffffffffffffffffffffffffffffffff16815260200191505060405180910390f35b61019f6004803603602081101561018957600080fd5b8101908080359060200190929190505050610fd5565b604051808273ffffffffffffffffffffffffffffffffffffffff1673ffffffffffffffffffffffffffffffffffffffff16815260200191505060405180910390f35b6101e9611011565b6040518082815260200191505060405180910390f35b61022b6004803603602081101561021557600080fd5b8101908080359060200190929190505050611017565b6040518082815260200191505060405180910390f35b6102836004803603602081101561025757600080fd5b81019080803573ffffffffffffffffffffffffffffffffffffffff169060200190929190505050611038565b6040518080602001838152602001828103825284818151815260200191508051906020019080838360005b838110156102c95780820151818401526020810190506102ae565b50505050905090810190601f1680156102f65780820380516001836020036101000a031916815260200191505b50935050505060405180910390f35b6103476004803603602081101561031b57600080fd5b81019080803573ffffffffffffffffffffffffffffffffffffffff169060200190929190505050611163565b60405180806020018481526020018373ffffffffffffffffffffffffffffffffffffffff1673ffffffffffffffffffffffffffffffffffffffff168152602001828103825285818151815260200191508051906020019080838360005b838110156103bf5780820151818401526020810190506103a4565b50505050905090810190601f1680156103ec5780820380516001836020036101000a031916815260200191505b5094505050505060405180910390f35b6104286004803603602081101561041257600080fd5b8101908080359060200190929190505050611245565b604051808b8152602001806020018a815260200180602001898152602001806020018881526020018781526020018673ffffffffffffffffffffffffffffffffffffffff1673ffffffffffffffffffffffffffffffffffffffff1681526020018573ffffffffffffffffffffffffffffffffffffffff1673ffffffffffffffffffffffffffffffffffffffff16815260200184810384528d818151815260200191508051906020019080838360005b838110156104f25780820151818401526020810190506104d7565b50505050905090810190601f16801561051f5780820380516001836020036101000a031916815260200191505b5084810383528b818151815260200191508051906020019080838360005b8381101561055857808201518184015260208101905061053d565b50505050905090810190601f1680156105855780820380516001836020036101000a031916815260200191505b50848103825289818151815260200191508051906020019080838360005b838110156105be5780820151818401526020810190506105a3565b50505050905090810190601f1680156105eb5780820380516001836020036101000a031916815260200191505b509d505050505050505050505050505060405180910390f35b6107746004803603606081101561061a57600080fd5b810190808035906020019064010000000081111561063757600080fd5b82018360208201111561064957600080fd5b8035906020019184600183028401116401000000008311171561066b57600080fd5b91908080601f016020809104026020016040519081016040528093929190818152602001838380828437600081840152601f19601f820116905080830192505050505050509192919290803590602001906401000000008111156106ce57600080fd5b8201836020820111156106e057600080fd5b8035906020019184600183028401116401000000008311171561070257600080fd5b91908080601f016020809104026020016040519081016040528093929190818152602001838380828437600081840152601f19601f820116905080830192505050505050509192919290803573ffffffffffffffffffffffffffffffffffffffff1690602001909291905050506114a1565b005b61077e61159a565b6040518082815260200191505060405180910390f35b6107c0600480360360208110156107aa57600080fd5b81019080803590602001909291905050506115a0565b60405180806020018a815260200180602001898152602001806020018881526020018781526020018673ffffffffffffffffffffffffffffffffffffffff1673ffffffffffffffffffffffffffffffffffffffff1681526020018573ffffffffffffffffffffffffffffffffffffffff1673ffffffffffffffffffffffffffffffffffffffff16815260200184810384528d818151815260200191508051906020019080838360005b83811015610884578082015181840152602081019050610869565b50505050905090810190601f1680156108b15780820380516001836020036101000a031916815260200191505b5084810383528b818151815260200191508051906020019080838360005b838110156108ea5780820151818401526020810190506108cf565b50505050905090810190601f1680156109175780820380516001836020036101000a031916815260200191505b50848103825289818151815260200191508051906020019080838360005b83811015610950578082015181840152602081019050610935565b50505050905090810190601f16801561097d5780820380516001836020036101000a031916815260200191505b509c5050505050505050505050505060405180910390f35b6109d7600480360360208110156109ab57600080fd5b81019080803573ffffffffffffffffffffffffffffffffffffffff1690602001909291905050506118a6565b6040518080602001806020018473ffffffffffffffffffffffffffffffffffffffff1673ffffffffffffffffffffffffffffffffffffffff168152602001838103835286818151815260200191508051906020019080838360005b83811015610a4d578082015181840152602081019050610a32565b50505050905090810190601f168015610a7a5780820380516001836020036101000a031916815260200191505b50838103825285818151815260200191508051906020019080838360005b83811015610ab3578082015181840152602081019050610a98565b50505050905090810190601f168015610ae05780820380516001836020036101000a031916815260200191505b509550505050505060405180910390f35b610af9611a20565b604051808273ffffffffffffffffffffffffffffffffffffffff1673ffffffffffffffffffffffffffffffffffffffff16815260200191505060405180910390f35b610d6b6004803603610100811015610b5257600080fd5b8101908080359060200190640100000000811115610b6f57600080fd5b820183602082011115610b8157600080fd5b80359060200191846001830284011164010000000083111715610ba357600080fd5b91908080601f016020809104026020016040519081016040528093929190818152602001838380828437600081840152601f19601f8201169050808301925050505050505091929192908035906020019092919080359060200190640100000000811115610c1057600080fd5b820183602082011115610c2257600080fd5b80359060200191846001830284011164010000000083111715610c4457600080fd5b91908080601f016020809104026020016040519081016040528093929190818152602001838380828437600081840152601f19601f8201169050808301925050505050505091929192908035906020019092919080359060200190640100000000811115610cb157600080fd5b820183602082011115610cc357600080fd5b80359060200191846001830284011164010000000083111715610ce557600080fd5b91908080601f016020809104026020016040519081016040528093929190818152602001838380828437600081840152601f19601f8201169050808301925050505050505091929192908035906020019092919080359060200190929190803573ffffffffffffffffffffffffffffffffffffffff169060200190929190505050611a46565b005b610e5060048036036060811015610d8357600080fd5b8101908080359060200190640100000000811115610da057600080fd5b820183602082011115610db257600080fd5b80359060200191846001830284011164010000000083111715610dd457600080fd5b91908080601f016020809104026020016040519081016040528093929190818152602001838380828437600081840152601f19601f82011690508083019250505050505050919291929080359060200190929190803573ffffffffffffffffffffffffffffffffffffffff169060200190929190505050611cf9565b005b610e5a611ddf565b6040518082815260200191505060405180910390f35b610eb260048036036020811015610e8657600080fd5b81019080803573ffffffffffffffffffffffffffffffffffffffff169060200190929190505050611de5565b604051808060200180602001838103835285818151815260200191508051906020019080838360005b83811015610ef6578082015181840152602081019050610edb565b50505050905090810190601f168015610f235780820380516001836020036101000a031916815260200191505b50838103825284818151815260200191508051906020019080838360005b83811015610f5c578082015181840152602081019050610f41565b50505050905090810190601f168015610f895780820380516001836020036101000a031916815260200191505b5094505050505060405180910390f35b60088181548110610fa657fe5b906000526020600020016000915054906101000a900473ffffffffffffffffffffffffffffffffffffffff1681565b60078181548110610fe257fe5b906000526020600020016000915054906101000a900473ffffffffffffffffffffffffffffffffffffffff1681565b60005481565b6006818154811061102457fe5b906000526020600020016000915090505481565b60606000600460008473ffffffffffffffffffffffffffffffffffffffff1673ffffffffffffffffffffffffffffffffffffffff1681526020019081526020016000206000018054600181600116156101000203166002900480601f0160208091040260200160405190810160405280929190818152602001828054600181600116156101000203166002900480156111125780601f106110e757610100808354040283529160200191611112565b820191906000526020600020905b8154815290600101906020018083116110f557829003601f168201915b50505050509150600460008473ffffffffffffffffffffffffffffffffffffffff1673ffffffffffffffffffffffffffffffffffffffff168152602001908152602001600020600101549050915091565b6004602052806000526040600020600091509050806000018054600181600116156101000203166002900480601f01602080910402602001604051908101604052809291908181526020018280546001816001161561010002031660029004801561120f5780601f106111e45761010080835404028352916020019161120f565b820191906000526020600020905b8154815290600101906020018083116111f257829003601f168201915b5050505050908060010154908060020160009054906101000a900473ffffffffffffffffffffffffffffffffffffffff16905083565b6003602052806000526040600020600091509050806000015490806001018054600181600116156101000203166002900480601f0160208091040260200160405190810160405280929190818152602001828054600181600116156101000203166002900480156112f75780601f106112cc576101008083540402835291602001916112f7565b820191906000526020600020905b8154815290600101906020018083116112da57829003601f168201915b505050505090806002015490806003018054600181600116156101000203166002900480601f01602080910402602001604051908101604052809291908181526020018280546001816001161561010002031660029004801561139b5780601f106113705761010080835404028352916020019161139b565b820191906000526020600020905b81548152906001019060200180831161137e57829003601f168201915b505050505090806004015490806005018054600181600116156101000203166002900480601f01602080910402602001604051908101604052809291908181526020018280546001816001161561010002031660029004801561143f5780601f106114145761010080835404028352916020019161143f565b820191906000526020600020905b81548152906001019060200180831161142257829003601f168201915b5050505050908060060154908060070154908060080160009054906101000a900473ffffffffffffffffffffffffffffffffffffffff16908060090160009054906101000a900473ffffffffffffffffffffffffffffffffffffffff1690508a565b60405180606001604052808481526020018381526020018273ffffffffffffffffffffffffffffffffffffffff16815250600560008373ffffffffffffffffffffffffffffffffffffffff1673ffffffffffffffffffffffffffffffffffffffff168152602001908152602001600020600082015181600001908051906020019061152d929190611fa7565b50602082015181600101908051906020019061154a929190611fa7565b5060408201518160020160006101000a81548173ffffffffffffffffffffffffffffffffffffffff021916908373ffffffffffffffffffffffffffffffffffffffff160217905550905050505050565b60025481565b60606000606060006060600080600080600360008b81526020019081526020016000206001018054600181600116156101000203166002900480601f01602080910402602001604051908101604052809291908181526020018280546001816001161561010002031660029004801561165a5780601f1061162f5761010080835404028352916020019161165a565b820191906000526020600020905b81548152906001019060200180831161163d57829003601f168201915b50505050509850600360008b8152602001908152602001600020600201549750600360008b81526020019081526020016000206003018054600181600116156101000203166002900480601f0160208091040260200160405190810160405280929190818152602001828054600181600116156101000203166002900480156117245780601f106116f957610100808354040283529160200191611724565b820191906000526020600020905b81548152906001019060200180831161170757829003601f168201915b50505050509650600360008b8152602001908152602001600020600401549550600360008b81526020019081526020016000206005018054600181600116156101000203166002900480601f0160208091040260200160405190810160405280929190818152602001828054600181600116156101000203166002900480156117ee5780601f106117c3576101008083540402835291602001916117ee565b820191906000526020600020905b8154815290600101906020018083116117d157829003601f168201915b50505050509450600360008b8152602001908152602001600020600601549350600360008b8152602001908152602001600020600701549250600360008b815260200190815260200160002060080160009054906101000a900473ffffffffffffffffffffffffffffffffffffffff169150600360008b815260200190815260200160002060090160009054906101000a900473ffffffffffffffffffffffffffffffffffffffff1690509193959799909294969850565b6005602052806000526040600020600091509050806000018054600181600116156101000203166002900480601f0160208091040260200160405190810160405280929190818152602001828054600181600116156101000203166002900480156119525780601f1061192757610100808354040283529160200191611952565b820191906000526020600020905b81548152906001019060200180831161193557829003601f168201915b505050505090806001018054600181600116156101000203166002900480601f0160208091040260200160405190810160405280929190818152602001828054600181600116156101000203166002900480156119f05780601f106119c5576101008083540402835291602001916119f0565b820191906000526020600020905b8154815290600101906020018083116119d357829003601f168201915b5050505050908060020160009054906101000a900473ffffffffffffffffffffffffffffffffffffffff16905083565b600960009054906101000a900473ffffffffffffffffffffffffffffffffffffffff1681565b600080815480929190600101919050555060405180610140016040528060005481526020018981526020018881526020018781526020018681526020018581526020018481526020018381526020018273ffffffffffffffffffffffffffffffffffffffff1681526020013373ffffffffffffffffffffffffffffffffffffffff168152506003600080548152602001908152602001600020600082015181600001556020820151816001019080519060200190611b05929190611fa7565b50604082015181600201556060820151816003019080519060200190611b2c929190611fa7565b506080820151816004015560a0820151816005019080519060200190611b53929190611fa7565b5060c0820151816006015560e082015181600701556101008201518160080160006101000a81548173ffffffffffffffffffffffffffffffffffffffff021916908373ffffffffffffffffffffffffffffffffffffffff1602179055506101208201518160090160006101000a81548173ffffffffffffffffffffffffffffffffffffffff021916908373ffffffffffffffffffffffffffffffffffffffff160217905550905050600085600460008473ffffffffffffffffffffffffffffffffffffffff1673ffffffffffffffffffffffffffffffffffffffff1681526020019081526020016000206001015401905080600460008473ffffffffffffffffffffffffffffffffffffffff1673ffffffffffffffffffffffffffffffffffffffff168152602001908152602001600020600101819055507fee47ab23acb2b4c8a4667c05755aa8eca2404d90a1325c68ed0ad1f286a0dd5e33604051808273ffffffffffffffffffffffffffffffffffffffff1673ffffffffffffffffffffffffffffffffffffffff16815260200191505060405180910390a1505050505050505050565b60405180606001604052808481526020018381526020018273ffffffffffffffffffffffffffffffffffffffff16815250600460008373ffffffffffffffffffffffffffffffffffffffff1673ffffffffffffffffffffffffffffffffffffffff1681526020019081526020016000206000820151816000019080519060200190611d85929190611fa7565b506020820151816001015560408201518160020160006101000a81548173ffffffffffffffffffffffffffffffffffffffff021916908373ffffffffffffffffffffffffffffffffffffffff160217905550905050505050565b60015481565b606080600560008473ffffffffffffffffffffffffffffffffffffffff1673ffffffffffffffffffffffffffffffffffffffff1681526020019081526020016000206000018054600181600116156101000203166002900480601f016020809104026020016040519081016040528092919081815260200182805460018160011615610100020316600290048015611ebe5780601f10611e9357610100808354040283529160200191611ebe565b820191906000526020600020905b815481529060010190602001808311611ea157829003601f168201915b50505050509150600560008473ffffffffffffffffffffffffffffffffffffffff1673ffffffffffffffffffffffffffffffffffffffff1681526020019081526020016000206001018054600181600116156101000203166002900480601f016020809104026020016040519081016040528092919081815260200182805460018160011615610100020316600290048015611f9b5780601f10611f7057610100808354040283529160200191611f9b565b820191906000526020600020905b815481529060010190602001808311611f7e57829003601f168201915b50505050509050915091565b828054600181600116156101000203166002900490600052602060002090601f016020900481019282601f10611fe857805160ff1916838001178555612016565b82800160010185558215612016579182015b82811115612015578251825591602001919060010190611ffa565b5b5090506120239190612027565b5090565b61204991905b8082111561204557600081600090555060010161202d565b5090565b9056fea165627a7a72305820814502391b5dc8e6e112d521e65d2ec89c64928a7d60f08851bdff3bd6f44a650029446570617274616d656e746f20457374616475616c206465205472c3a26e7369746f20646f20446973747269746f204665646572616c446570617274616d656e746f204e6163696f6e616c206465205472c3a26e7369746f",
  "source": "pragma solidity ^0.5.0;\n\ncontract Infraction{\n\n    // Public Variables\n    uint public ticketsCount;\n    uint public driversCount;\n    uint public authoritiesCount;\n\n\n    //Model a trafic ticket\n    struct TraficTicket{\n        uint id;\n        string vehiclePlate;\n        uint infractionCategory; // 1-Leve 2-Mdia 3-Grave 4-Gravssima\n        string dateInfraction;\n        uint infractionPoints;\n        string observations;\n        uint valueToPay;\n        uint statusOfInfraction;\n\n        address infractorDriverAddress;\n        address authorityResponsableAdress;//Owner\n    }\n\n    // Model a Driver\n    struct Drivers{\n        string name;\n        uint numberOfPoints;\n        address driverAddress;\n\n    }\n\n    // Model Authoritie\n    struct Authorities{\n        string name;\n        string sigla;\n        address authoritieAddress;\n    }\n\n\n    // Map Tickets\n    mapping(uint => TraficTicket) public tickets;\n    mapping(address => Drivers) public drivers;\n    mapping(address => Authorities) public authorities;\n\n    // Create Lists\n    uint[] public ticketList;\n    address[] public driversList;\n    address[] public authoritiesList;\n\n\n    // Address\n    address public ownerInfraction; // Who register the infraction. Ex: Police Man\n\n\n    // Events\n    event registeredInfraction (\n        address authoritieAddress\n    );\n\n\n    //  ============================================================== CONSTRUCTOR ==============================================================\n    //  Adding Some initial informations to the Blockchain\n\n    constructor() public {\n        /*\n                        AUTHORITIES GANACHE ACCOUNTS\n            - INDEX 0 -> 0x4Ec72B1Bd5b4f6c6aECF9630a0e6F0479c0b2477\n            - INDEX 1 -> 0x7Fe8C20672FA2147d0db1fAa8C49fBEbA00f0c23\n        */\n        //Register some Authorities\n        registerAuthoritie(\"Departamento Nacional de Trnsito\",\"DNIT\",0x4Ec72B1Bd5b4f6c6aECF9630a0e6F0479c0b2477);\n        registerAuthoritie(\"Departamento Estadual de Trnsito do Distrito Federal\",\"DETRAN-DF\",0x7Fe8C20672FA2147d0db1fAa8C49fBEbA00f0c23);\n\n        /*\n                        DRIVERS GANACHE ACCOUNTS\n            - INDEX 2 -> 0xf6A3D407E0013b400Eb355F70B99ac71644583F1\n            - INDEX 3 -> 0x21AeE1a9597Bc9e8E1EF14C4fD6D3fE55A9027b4\n            - INDEX 4 -> 0xBbD25469b0f2F569511C195a73408D7DcceB9eDb\n        */\n        // Register some drivers\n        registerDriver(\"Joo\",0,0xf6A3D407E0013b400Eb355F70B99ac71644583F1);\n        registerDriver(\"Paulo\",0,0x21AeE1a9597Bc9e8E1EF14C4fD6D3fE55A9027b4);\n        registerDriver(\"Nunes\",0,0xBbD25469b0f2F569511C195a73408D7DcceB9eDb);\n\n        // Registering Some Tickets\n        registerInfraction(\"ABC-1234\",1,\"01/01/2019\",5,\"Estava a 110 na via de 80\",1,0,0xf6A3D407E0013b400Eb355F70B99ac71644583F1);\n        registerInfraction(\"DEF-5678\",2,\"02/01/2019\",3,\"Estava a 90 na via de 50\",2,1,0x21AeE1a9597Bc9e8E1EF14C4fD6D3fE55A9027b4);\n        registerInfraction(\"GHI-9910\",2,\"03/01/2019\",3,\"Estava a 90 na via de 50\",2,1,0xBbD25469b0f2F569511C195a73408D7DcceB9eDb);\n\n    }\n\n    //  ============================================================== REGISTER FUNCTIONS ==============================================================\n\n    function registerAuthoritie(string memory _name,string memory _sigla, address _authoritieAddress) public{\n\n        authorities[_authoritieAddress] = Authorities(_name, _sigla, _authoritieAddress);\n\n    }\n\n\n    function registerDriver(string memory _name,uint numberOfPoints, address _driverAddress) public{\n\n        drivers[_driverAddress] = Drivers(_name, numberOfPoints, _driverAddress);\n\n    }\n\n\n    function registerInfraction(string memory _vehiclePlate, uint _infractionCategory,\n                                string memory _dateInfraction, uint _infractionPoints,\n                                string memory _observations, uint _valueToPay,\n                                uint _statusOfInfraction, address _infractorDriverAddress\n    )public{\n        // Require that the account registering the infraction is a authoritie\n        //require(authorities[msg.sender]) = true;\n\n        ticketsCount++;\n        tickets[ticketsCount] = TraficTicket(ticketsCount, _vehiclePlate, _infractionCategory, _dateInfraction, _infractionPoints, _observations,\n                                _valueToPay, _statusOfInfraction, _infractorDriverAddress, msg.sender);\n\n        // Update driver points\n        uint driverPointsAfterInfraction = drivers[_infractorDriverAddress].numberOfPoints + _infractionPoints;\n        drivers[_infractorDriverAddress].numberOfPoints = driverPointsAfterInfraction;\n\n        // trigger infraction registered event\n        emit registeredInfraction(msg.sender);\n\n    }\n\n    //  ============================================================== GET INFORMATION FUNCTIONS ==============================================================\n\n    function getTicketInformation(uint ticket_id) public view returns(string memory vehiclePlate, uint infractionCategory,\n                                string memory dateInfraction, uint infractionPoints,\n                                string memory observations, uint valueToPay,\n                                uint statusOfInfraction, address infractorDriverAddress, address authorityResponsableAdress\n    ){\n        vehiclePlate = tickets[ticket_id].vehiclePlate;\n        infractionCategory = tickets[ticket_id].infractionCategory;\n        dateInfraction = tickets[ticket_id].dateInfraction;\n        infractionPoints = tickets[ticket_id].infractionPoints;\n        observations = tickets[ticket_id].observations;\n        valueToPay = tickets[ticket_id].valueToPay;\n        statusOfInfraction = tickets[ticket_id].statusOfInfraction;\n        infractorDriverAddress = tickets[ticket_id].infractorDriverAddress;\n        authorityResponsableAdress = tickets[ticket_id].authorityResponsableAdress;\n    }\n\n\n    function getDriverInformation(address driverAddress) public view returns (string memory name,uint numberOfPoints){\n        name = drivers[driverAddress].name;\n        numberOfPoints = drivers[driverAddress].numberOfPoints;\n\n    }\n\n\n    function getAuthoritieInformation(address authoritieAddress) public view returns (string memory name, string memory sigla){\n        name = authorities[authoritieAddress].name;\n        sigla = authorities[authoritieAddress].sigla;\n\n    }\n\n}\n",
  "sourcePath": "/home/jpnsoares/TCC/aplicacaotcc_v2/contracts/Infraction.sol",
  "compiler": {
    "name": "solc",
    "version": "0.5.8+commit.23d335f2.Emscripten.clang"
  },
  "schemaVersion": "3.0.11",
  "updatedAt": "2019-07-03T03:35:33.111Z",
  "devdoc": {
    "methods": {}
  },
  "userdoc": {
    "methods": {}
  }
}